{
  "contractName": "TrainingPoW",
  "abi": [
    {
      "inputs": [],
      "stateMutability": "nonpayable",
      "type": "constructor"
    },
    {
      "anonymous": false,
      "inputs": [
        {
          "indexed": false,
          "internalType": "uint256",
          "name": "id",
          "type": "uint256"
        },
        {
          "indexed": false,
          "internalType": "string",
          "name": "modelHash",
          "type": "string"
        },
        {
          "indexed": false,
          "internalType": "uint256",
          "name": "accuracy",
          "type": "uint256"
        }
      ],
      "name": "ResultSubmitted",
      "type": "event"
    },
    {
      "anonymous": false,
      "inputs": [
        {
          "indexed": false,
          "internalType": "uint256",
          "name": "id",
          "type": "uint256"
        },
        {
          "indexed": false,
          "internalType": "address",
          "name": "miner",
          "type": "address"
        }
      ],
      "name": "TaskAssigned",
      "type": "event"
    },
    {
      "anonymous": false,
      "inputs": [
        {
          "indexed": false,
          "internalType": "uint256",
          "name": "id",
          "type": "uint256"
        },
        {
          "indexed": false,
          "internalType": "string",
          "name": "datasetHash",
          "type": "string"
        },
        {
          "indexed": false,
          "internalType": "string",
          "name": "modelHash",
          "type": "string"
        },
        {
          "indexed": false,
          "internalType": "uint256",
          "name": "reward",
          "type": "uint256"
        }
      ],
      "name": "TaskCreated",
      "type": "event"
    },
    {
      "inputs": [],
      "name": "owner",
      "outputs": [
        {
          "internalType": "address",
          "name": "",
          "type": "address"
        }
      ],
      "stateMutability": "view",
      "type": "function",
      "constant": true
    },
    {
      "inputs": [],
      "name": "taskCount",
      "outputs": [
        {
          "internalType": "uint256",
          "name": "",
          "type": "uint256"
        }
      ],
      "stateMutability": "view",
      "type": "function",
      "constant": true
    },
    {
      "inputs": [
        {
          "internalType": "uint256",
          "name": "",
          "type": "uint256"
        }
      ],
      "name": "tasks",
      "outputs": [
        {
          "internalType": "uint256",
          "name": "id",
          "type": "uint256"
        },
        {
          "internalType": "address",
          "name": "miner",
          "type": "address"
        },
        {
          "internalType": "string",
          "name": "datasetHash",
          "type": "string"
        },
        {
          "internalType": "string",
          "name": "modelHash",
          "type": "string"
        },
        {
          "internalType": "bool",
          "name": "completed",
          "type": "bool"
        },
        {
          "internalType": "uint256",
          "name": "reward",
          "type": "uint256"
        }
      ],
      "stateMutability": "view",
      "type": "function",
      "constant": true
    },
    {
      "inputs": [
        {
          "internalType": "string",
          "name": "datasetHash",
          "type": "string"
        },
        {
          "internalType": "string",
          "name": "modelHash",
          "type": "string"
        },
        {
          "internalType": "uint256",
          "name": "reward",
          "type": "uint256"
        }
      ],
      "name": "createTask",
      "outputs": [],
      "stateMutability": "nonpayable",
      "type": "function"
    },
    {
      "inputs": [
        {
          "internalType": "uint256",
          "name": "taskId",
          "type": "uint256"
        },
        {
          "internalType": "address",
          "name": "miner",
          "type": "address"
        }
      ],
      "name": "assignTask",
      "outputs": [],
      "stateMutability": "nonpayable",
      "type": "function"
    },
    {
      "inputs": [
        {
          "internalType": "uint256",
          "name": "taskId",
          "type": "uint256"
        },
        {
          "internalType": "string",
          "name": "modelHash",
          "type": "string"
        },
        {
          "internalType": "uint256",
          "name": "accuracy",
          "type": "uint256"
        }
      ],
      "name": "submitResult",
      "outputs": [],
      "stateMutability": "nonpayable",
      "type": "function"
    },
    {
      "inputs": [
        {
          "internalType": "uint256",
          "name": "taskId",
          "type": "uint256"
        },
        {
          "internalType": "uint256",
          "name": "accuracy",
          "type": "uint256"
        }
      ],
      "name": "getCalculatedReward",
      "outputs": [
        {
          "internalType": "uint256",
          "name": "",
          "type": "uint256"
        }
      ],
      "stateMutability": "view",
      "type": "function",
      "constant": true
    }
  ],
  "bytecode": "0x608060405234801561001057600080fd5b5033600260006101000a81548173ffffffffffffffffffffffffffffffffffffffff021916908373ffffffffffffffffffffffffffffffffffffffff16021790555061118b806100616000396000f3fe608060405234801561001057600080fd5b506004361061007d5760003560e01c80638d9776721161005b5780638d977672146100ea5780638da5cb5b1461011f578063a8d6ae1f1461013d578063b6cb58a5146101595761007d565b806335e1365e1461008257806341a4e30a146100b25780635293ee81146100ce575b600080fd5b61009c60048036038101906100979190610b06565b610177565b6040516100a99190610d09565b60405180910390f35b6100cc60048036038101906100c791906109bb565b61018b565b005b6100e860048036038101906100e39190610a63565b61038c565b005b61010460048036038101906100ff9190610a3a565b6104c1565b60405161011696959493929190610d4d565b60405180910390f35b61012761063a565b6040516101349190610c8e565b60405180910390f35b61015760048036038101906101529190610a9f565b610660565b005b6101616107f1565b60405161016e9190610d09565b60405180910390f35b600061018383836107f7565b905092915050565b600260009054906101000a900473ffffffffffffffffffffffffffffffffffffffff1673ffffffffffffffffffffffffffffffffffffffff163373ffffffffffffffffffffffffffffffffffffffff161461021b576040517f08c379a000000000000000000000000000000000000000000000000000000000815260040161021290610ce9565b60405180910390fd5b6040518060c001604052806001548152602001600073ffffffffffffffffffffffffffffffffffffffff1681526020018481526020018381526020016000151581526020018281525060008060015481526020019081526020016000206000820151816000015560208201518160010160006101000a81548173ffffffffffffffffffffffffffffffffffffffff021916908373ffffffffffffffffffffffffffffffffffffffff16021790555060408201518160020190805190602001906102e5929190610886565b506060820151816003019080519060200190610302929190610886565b5060808201518160040160006101000a81548160ff02191690831515021790555060a082015181600501559050507f94b062fb0d134e6f12cda4c62e9aac9e2da3e5ce4d9ac4d7f6ca761cd7b8801a6001548484846040516103679493929190610dbc565b60405180910390a16001600081548092919061038290611011565b9190505550505050565b600073ffffffffffffffffffffffffffffffffffffffff1660008084815260200190815260200160002060010160009054906101000a900473ffffffffffffffffffffffffffffffffffffffff1673ffffffffffffffffffffffffffffffffffffffff1614610430576040517f08c379a000000000000000000000000000000000000000000000000000000000815260040161042790610ca9565b60405180910390fd5b8060008084815260200190815260200160002060010160006101000a81548173ffffffffffffffffffffffffffffffffffffffff021916908373ffffffffffffffffffffffffffffffffffffffff1602179055507f52476d55ecef5cf13caa64038f297fe6bbf865d9584a98b8722a15a6d5db128f82826040516104b5929190610d24565b60405180910390a15050565b60006020528060005260406000206000915090508060000154908060010160009054906101000a900473ffffffffffffffffffffffffffffffffffffffff169080600201805461051090610fdf565b80601f016020809104026020016040519081016040528092919081815260200182805461053c90610fdf565b80156105895780601f1061055e57610100808354040283529160200191610589565b820191906000526020600020905b81548152906001019060200180831161056c57829003601f168201915b50505050509080600301805461059e90610fdf565b80601f01602080910402602001604051908101604052809291908181526020018280546105ca90610fdf565b80156106175780601f106105ec57610100808354040283529160200191610617565b820191906000526020600020905b8154815290600101906020018083116105fa57829003601f168201915b5050505050908060040160009054906101000a900460ff16908060050154905086565b600260009054906101000a900473ffffffffffffffffffffffffffffffffffffffff1681565b3373ffffffffffffffffffffffffffffffffffffffff1660008085815260200190815260200160002060010160009054906101000a900473ffffffffffffffffffffffffffffffffffffffff1673ffffffffffffffffffffffffffffffffffffffff1614610703576040517f08c379a00000000000000000000000000000000000000000000000000000000081526004016106fa90610cc9565b60405180910390fd5b600160008085815260200190815260200160002060040160006101000a81548160ff02191690831515021790555081600080858152602001908152602001600020600301908051906020019061075a929190610886565b507f35789da1792ea4d356ab9c535f2220299586eb6582f46808e90f27a7e89233b183838360405161078e93929190610e0f565b60405180910390a160006107a284836107f7565b90503373ffffffffffffffffffffffffffffffffffffffff166108fc829081150290604051600060405180830381858888f193505050501580156107ea573d6000803e3d6000fd5b5050505050565b60015481565b6000605a821061082a576002600080858152602001908152602001600020600501546108239190610efb565b9050610880565b6050821061086757600a600f600080868152602001908152602001600020600501546108569190610efb565b6108609190610eca565b9050610880565b6000808481526020019081526020016000206005015490505b92915050565b82805461089290610fdf565b90600052602060002090601f0160209004810192826108b457600085556108fb565b82601f106108cd57805160ff19168380011785556108fb565b828001600101855582156108fb579182015b828111156108fa5782518255916020019190600101906108df565b5b509050610908919061090c565b5090565b5b8082111561092557600081600090555060010161090d565b5090565b600061093c61093784610e7e565b610e4d565b90508281526020810184848401111561095457600080fd5b61095f848285610f9d565b509392505050565b60008135905061097681611127565b92915050565b600082601f83011261098d57600080fd5b813561099d848260208601610929565b91505092915050565b6000813590506109b58161113e565b92915050565b6000806000606084860312156109d057600080fd5b600084013567ffffffffffffffff8111156109ea57600080fd5b6109f68682870161097c565b935050602084013567ffffffffffffffff811115610a1357600080fd5b610a1f8682870161097c565b9250506040610a30868287016109a6565b9150509250925092565b600060208284031215610a4c57600080fd5b6000610a5a848285016109a6565b91505092915050565b60008060408385031215610a7657600080fd5b6000610a84858286016109a6565b9250506020610a9585828601610967565b9150509250929050565b600080600060608486031215610ab457600080fd5b6000610ac2868287016109a6565b935050602084013567ffffffffffffffff811115610adf57600080fd5b610aeb8682870161097c565b9250506040610afc868287016109a6565b9150509250925092565b60008060408385031215610b1957600080fd5b6000610b27858286016109a6565b9250506020610b38858286016109a6565b9150509250929050565b610b4b81610f55565b82525050565b610b5a81610f67565b82525050565b6000610b6b82610eae565b610b758185610eb9565b9350610b85818560208601610fac565b610b8e81611116565b840191505092915050565b6000610ba6601583610eb9565b91507f5461736b20616c72656164792061737369676e656400000000000000000000006000830152602082019050919050565b6000610be6602683610eb9565b91507f4f6e6c792061737369676e6564206d696e65722063616e207375626d6974207260008301527f6573756c747300000000000000000000000000000000000000000000000000006020830152604082019050919050565b6000610c4c601b83610eb9565b91507f4f6e6c79206f776e65722063616e20637265617465207461736b7300000000006000830152602082019050919050565b610c8881610f93565b82525050565b6000602082019050610ca36000830184610b42565b92915050565b60006020820190508181036000830152610cc281610b99565b9050919050565b60006020820190508181036000830152610ce281610bd9565b9050919050565b60006020820190508181036000830152610d0281610c3f565b9050919050565b6000602082019050610d1e6000830184610c7f565b92915050565b6000604082019050610d396000830185610c7f565b610d466020830184610b42565b9392505050565b600060c082019050610d626000830189610c7f565b610d6f6020830188610b42565b8181036040830152610d818187610b60565b90508181036060830152610d958186610b60565b9050610da46080830185610b51565b610db160a0830184610c7f565b979650505050505050565b6000608082019050610dd16000830187610c7f565b8181036020830152610de38186610b60565b90508181036040830152610df78185610b60565b9050610e066060830184610c7f565b95945050505050565b6000606082019050610e246000830186610c7f565b8181036020830152610e368185610b60565b9050610e456040830184610c7f565b949350505050565b6000604051905081810181811067ffffffffffffffff82111715610e7457610e736110e7565b5b8060405250919050565b600067ffffffffffffffff821115610e9957610e986110e7565b5b601f19601f8301169050602081019050919050565b600081519050919050565b600082825260208201905092915050565b6000610ed582610f93565b9150610ee083610f93565b925082610ef057610eef611089565b5b828204905092915050565b6000610f0682610f93565b9150610f1183610f93565b9250817fffffffffffffffffffffffffffffffffffffffffffffffffffffffffffffffff0483118215151615610f4a57610f4961105a565b5b828202905092915050565b6000610f6082610f73565b9050919050565b60008115159050919050565b600073ffffffffffffffffffffffffffffffffffffffff82169050919050565b6000819050919050565b82818337600083830152505050565b60005b83811015610fca578082015181840152602081019050610faf565b83811115610fd9576000848401525b50505050565b60006002820490506001821680610ff757607f821691505b6020821081141561100b5761100a6110b8565b5b50919050565b600061101c82610f93565b91507fffffffffffffffffffffffffffffffffffffffffffffffffffffffffffffffff82141561104f5761104e61105a565b5b600182019050919050565b7f4e487b7100000000000000000000000000000000000000000000000000000000600052601160045260246000fd5b7f4e487b7100000000000000000000000000000000000000000000000000000000600052601260045260246000fd5b7f4e487b7100000000000000000000000000000000000000000000000000000000600052602260045260246000fd5b7f4e487b7100000000000000000000000000000000000000000000000000000000600052604160045260246000fd5b6000601f19601f8301169050919050565b61113081610f55565b811461113b57600080fd5b50565b61114781610f93565b811461115257600080fd5b5056fea2646970667358221220febf8cc60333f0b4049a27c3609a6cf424e5b7201b27ffda004c9f6b1fc4c11b64736f6c63430008000033",
  "immutableReferences": {},
  "source": "// SPDX-License-Identifier: GPL-3.0\r\npragma solidity ^0.8.0;\r\n\r\ncontract TrainingPoW {\r\n    struct Task {\r\n        uint256 id;\r\n        address miner;\r\n        string datasetHash;\r\n        string modelHash;\r\n        bool completed;\r\n        uint256 reward;\r\n    }\r\n\r\n    mapping(uint256 => Task) public tasks;\r\n    uint256 public taskCount;\r\n    address public owner;\r\n\r\n    event TaskCreated(uint256 id, string datasetHash, string modelHash, uint256 reward);\r\n    event TaskAssigned(uint256 id, address miner);\r\n    event ResultSubmitted(uint256 id, string modelHash, uint256 accuracy);\r\n\r\n    constructor() {\r\n        owner = msg.sender;\r\n    }\r\n\r\n    function createTask(string memory datasetHash, string memory modelHash, uint256 reward) public {\r\n        require(msg.sender == owner, \"Only owner can create tasks\");\r\n        tasks[taskCount] = Task(taskCount, address(0), datasetHash, modelHash, false, reward);\r\n        emit TaskCreated(taskCount, datasetHash, modelHash, reward);\r\n        taskCount++;\r\n    }\r\n\r\n    function assignTask(uint256 taskId, address miner) public {\r\n        require(tasks[taskId].miner == address(0), \"Task already assigned\");\r\n        tasks[taskId].miner = miner;\r\n        emit TaskAssigned(taskId, miner);\r\n    }\r\n\r\n    function submitResult(uint256 taskId, string memory modelHash, uint256 accuracy) public {\r\n        require(tasks[taskId].miner == msg.sender, \"Only assigned miner can submit results\");\r\n        tasks[taskId].completed = true;\r\n        tasks[taskId].modelHash = modelHash;\r\n        emit ResultSubmitted(taskId, modelHash, accuracy);\r\n\r\n        // Calculate reward based on accuracy\r\n        uint256 reward = calculateReward(taskId, accuracy);\r\n\r\n        // Transfer reward to the miner\r\n        payable(msg.sender).transfer(reward);\r\n    }\r\n\r\n    function calculateReward(uint256 taskId, uint256 accuracy) internal view returns (uint256) {\r\n        if (accuracy >= 90) {\r\n            return tasks[taskId].reward * 2; // Double reward for accuracy >= 90%\r\n        } else if (accuracy >= 80) {\r\n            return tasks[taskId].reward * 15 / 10; // 1.5x reward for accuracy >= 80%\r\n        } else {\r\n            return tasks[taskId].reward; // Base reward for lower accuracy\r\n        }\r\n    }\r\n\r\n    function getCalculatedReward(uint256 taskId, uint256 accuracy) external view returns (uint256) {\r\n        return calculateReward(taskId, accuracy);\r\n    }\r\n}\r\n",
  "sourcePath": "C:\\Users\\masen\\OneDrive\\Desktop\\Programming\\Ku_block\\Capstone\\tpow\\contracts\\TrainingPoW.sol",
  "compiler": {
    "name": "solc",
    "version": "0.8.0+commit.c7dfd78e.Emscripten.clang"
  },
  "schemaVersion": "3.4.16",
  "updatedAt": "2024-07-18T20:55:21.933Z",
  "networkType": "ethereum",
  "devdoc": {
    "kind": "dev",
    "methods": {},
    "version": 1
  },
  "userdoc": {
    "kind": "user",
    "methods": {},
    "version": 1
  }
}